:1004B800A046004D6F6E00000000000000547565F6
:1004C8000000000000000057656400000000000004
:1004D80000546875000000000000004672690000C2
:1004E8000000000000536174000000000000005389
:1004F800756E000000000000009866001F001C00D8
:100508001F001E001F001E001F001F001E001F00EE
:100518001E001F8C5807E6000C001F0017003B0048
:100528003782460005825600008248000182640036
:0F053800008C4A00830086008900C500C800CBF4
:1007B500438901758CFC758A18D2A9D2AFD28C22D7
:0407C5007FE87E0348
:0B07C900EF1FAC0670011E4C70F62202
:1001B00020B2221207C520B2197849E2700218E273
:1001C00070047F0180027F007848E4F208EFF212A9
:1001D000071D30B2FD20B13A7849E2700218E27092
:1001E000311207C520B1287865E22401F218E23403
:1001F00000F208E26406700218E270057864F20802
:10020000F27865E225E0244AF808E2FF1207E230BE
:10021000B1FD30B0030202A57849E2700218E26035
:10022000030202A51207C520B0787865E2700218B3
:10023000E2700D7859E22401F218E23400F2800EE7
:100240007865E26401700218E270081206C81203B1
:100250002E803E7865E26402700218E27005120694
:1002600037802E7865E26403700218E27005120789
:100270007E801E7865E26404700218E27005120741
:1002800060800E7865E26405700218E27003120760
:100290004212000E7865E225E0244AF808E2FF12D7
:1002A00007E230B0FD30B30302032D7849E270025B
:1002B00018E270791207C520B370C37865E2940321
:1002C00018E264809480501F08E2FF25E02459F969
:1002D000E36401700219E37029EF25E02458F8E483
:1002E000F2087402F2801B7865E2FF25E02459F9D8
:1002F000E3700219E3700BEF25E02458F8E4F208EC
:1003000004F27865E225E02458F808E224FFF218A8
:10031000E234FF12068212032E12000E7865E225E7
:0E032000E0244AF808E2FF1207E230B3FD22A3
:10000E007F801207E27858E2FE08E2FF7C037DE86B
:10001E0012042DEF2430FF1207EC7858E2FE08E2AE
:10002E00FF7C007D6412042D7C007D0A12042DEDF0
:10003E002430FF1207EC7858E2FE08E2FF7C007DC8
:10004E000A12042D7C007D0A12042DED2430FF12BD
:10005E0007EC7858E2FE08E2FF7C007D0A12042DC0
:10006E00ED2430FF1207EC7F2D1207EC785AE2FEDA
:10007E0008E2FF7C007D0A12042DEF2430FF1207E8
:10008E00EC785AE2FE08E2FF7C007D0A12042DEDA8
:10009E002430FF1207EC7F2D1207EC785CE2FE088D
:1000AE00E2FF7C007D0A12042DEF2430FF1207ECD4
:1000BE00785CE2FE08E2FF7C007D0A12042DED243E
:1000CE0030FF1207EC7F201207EC7F201207EC7F27
:1000DE00201207EC7847E275F00AA42400F8E2FF3C
:1000EE001207EC7847E275F00AA42401F8E2FF1239
:1000FE0007EC7847E275F00AA42402F8E2FF120733
:10010E00EC7FC01207E27F201207EC7F201207EC73
:10011E007F201207EC7F201207EC785EE2FE08E2E9
:10012E00FF7C007D0A12042DEF2430FF1207EC78BD
:10013E005EE2FE08E2FF7C007D0A12042DED243003
:10014E00FF1207EC7F2D1207EC7860E2FE08E2FF4B
:10015E007C007D0A12042DEF2430FF1207EC78602C
:10016E00E2FE08E2FF7C007D0A12042DED2430FF32
:10017E001207EC7F2D1207EC7862E2FE08E2FF7C9C
:10018E00007D0A12042DEF2430FF1207EC7862E294
:10019E00FE08E2FF7C007D0A12042DED2430FF02E2
:0201AE0007EC5C
:0E07D40012079C1207B512000E1201B080FB36
:03000B000205D417
:1005D400C0E0C0F0C083C082C0D075D000C000C0ED
:1005E40001C002C003C004C005C006C0077849E2C8
:1005F400700218E26022758CFC758A187857E22420
:1006040001F218E23400F208E2B4E80C18E2B40390
:1006140007E4F208F2120003D007D006D005D00494
:10062400D003D002D001D000D0D0D082D083D0F07B
:03063400D0E032E1
:0600030012074202000E8C
:100742007863E22401F218E23400F2C308E2943C36
:0E07520018E294004007E4F208F21207602259
:100760007861E22401F218E23400F2C308E2943C1A
:0E07700018E294004007E4F208F212077E221D
:10077E00785FE22401F218E23400F2C308E2941822
:0E078E0018E294004007E4F208F21206372247
:10063700785DE22401F218E23400F27847E22401FF
:10064700F218E23400F2C308E2940718E2648094D7
:10065700804004E4F208F2785BE225E02465F8E2E2
:100667002401FF18E23400FEC3785DE29F18E29E82
:0B0677004008E4F20804F21206C8225A
:1006C800785BE22401F218E23400120682C3785BF8
:1006D800E2940D18E29400401118E22401F218E2A5
:0B06E8003400F2785AE4F20804F22219
:08068200F27858E2FE08E2FFE5
:10068A00AB07AA067C017D90120482ED4C601D7CAA
:10069A00007D04AF03AE02120482ED4C7017AE0265
:1006AA00AF03FC7D64120482ED4C60097868E4F2C1
:0E06BA0008741DF2227868E4F208741CF22223
:10032E00785CE2FE08E2FF785AE2FC08E2FD7858BB
:05033E00E2FA08E2FBF9
:10034300787EEEF208EFF28D828C8308EAF208EBF6
:01035300F2B7
:10035400244FFFEA34F8FE7C007D04120482AA06CE
:10036400AB077881E2244DFF18E234F8FE7C017D6E
:100374006D12041BEF2BFFEE3AAB07FAE4FFFEE528
:100384008224FFFDE58334FFFCC3EF9DEC6480F819
:10039400EE6480985016EF25E02466F8E2FC08E24B
:1003A4002BFBEC3AFA0FBF00010E80D37880E2FEFB
:1003B40008E2FF7C017D90120482ED4C6024788079
:1003C400E2FE08E2FF7C007D04120482ED4C7026FC
:1003D4007880E2FE08E2FF7C007D64120482ED4C2A
:1003E4006014AE83AF82C3EF9403EE6480948040C4
:1003F400050BBB00010A787EE2FE08E22BFBEE3A15
:10040400FEEB2403FFE43EFE7C007D0712042D78FE
:0604140046ECF208EDF2D7
:01041A0022BF
:10071D007849E2700218E270167F0E1207E2E47853
:10072D0064F208F2E225E0244AF808E2FF80027F35
:05073D000C1207E2228E
:1006F300C2A58F807F017E00120704D2A77F057EEB
:0107030000F5
:10070400D3EF9400EE9400400F7DC77C01DCFEDD46
:08071400FAEF1F70EB1E80E8F4
:01071C0022BA
:0A07E200C2A7C2A61206F3C2A722A6
:0A07EC00C2A7D2A61206F3C2A7228C
:10079C007F381207E27F0C1207E27F061207E27F16
:0907AC00011207E27F800207E25E
:03000000020548AE
:0C054800787FE4F6D8FD75810702058F6E
:10041B00EF8DF0A4A8F0CF8CF0A428CE8DF0A42EF5
:02042B00FE22AF
:10042D00BC000BBE0029EF8DF084FFADF022E4CCB3
:10043D00F875F008EF2FFFEE33FEEC33FCEE9DEC7C
:10044D00984005FCEE9DFE0FD5F0E9E4CEFD22EDC2
:10045D00F8F5F0EE8420D21CFEADF075F008EF2F0C
:10046D00FFED33FD4007985006D5F0F222C398FDFD
:05047D000FD5F0EA229A
:10048200C2D5EC30E709B2D5E4C39DFDE49CFCEE95
:1004920030E715B2D5E4C39FFFE49EFE12042DC3DC
:1004A200E49DFDE49CFC800312042D30D507C3E4D7
:0604B2009FFFE49EFE2204
:100554000207D4E493A3F8E493A34003F68001F2E2
:1005640008DFF48029E493A3F85407240CC8C333A8
:10057400C4540F4420C8834004F456800146F6DF77
:10058400E4800B01020408102040809004B8E47E4B
:10059400019360BCA3FF543F30E509541FFEE4936C
:1005A400A360010ECF54C025E060A840B8E493A333
:1005B400FAE493A3F8E493A3C8C582C8CAC583CA5E
:1005C400F0A3C8C582C8CAC583CADFE9DEE780BE16
:0105470000B3
:00000001FF
